{
  "contractName": "CoalSupplyChain",
  "abi": [
    {
      "inputs": [
        {
          "internalType": "uint256",
          "name": "coalId",
          "type": "uint256"
        },
        {
          "internalType": "uint256",
          "name": "_quality",
          "type": "uint256"
        },
        {
          "internalType": "uint256",
          "name": "_quantity",
          "type": "uint256"
        },
        {
          "internalType": "string",
          "name": "_geostamp",
          "type": "string"
        }
      ],
      "name": "newShipment",
      "outputs": [],
      "stateMutability": "nonpayable",
      "type": "function"
    },
    {
      "inputs": [
        {
          "internalType": "uint256",
          "name": "coalId",
          "type": "uint256"
        },
        {
          "internalType": "uint256",
          "name": "_quality",
          "type": "uint256"
        },
        {
          "internalType": "uint256",
          "name": "_quantity",
          "type": "uint256"
        },
        {
          "internalType": "string",
          "name": "_geostamp",
          "type": "string"
        }
      ],
      "name": "addState",
      "outputs": [],
      "stateMutability": "nonpayable",
      "type": "function"
    },
    {
      "inputs": [
        {
          "internalType": "uint256",
          "name": "coalId",
          "type": "uint256"
        }
      ],
      "name": "viewShipment",
      "outputs": [
        {
          "components": [
            {
              "internalType": "uint256",
              "name": "quality",
              "type": "uint256"
            },
            {
              "internalType": "uint256",
              "name": "quantity",
              "type": "uint256"
            },
            {
              "internalType": "address",
              "name": "user",
              "type": "address"
            },
            {
              "internalType": "uint256",
              "name": "timestamp",
              "type": "uint256"
            },
            {
              "internalType": "string",
              "name": "geostamp",
              "type": "string"
            }
          ],
          "internalType": "struct CoalSupplyChain.CoalState[]",
          "name": "",
          "type": "tuple[]"
        }
      ],
      "stateMutability": "view",
      "type": "function",
      "constant": true
    },
    {
      "inputs": [],
      "name": "viewDashboard",
      "outputs": [
        {
          "components": [
            {
              "internalType": "uint256",
              "name": "quality",
              "type": "uint256"
            },
            {
              "internalType": "uint256",
              "name": "quantity",
              "type": "uint256"
            },
            {
              "internalType": "uint256",
              "name": "coalId",
              "type": "uint256"
            },
            {
              "internalType": "uint256",
              "name": "timestamp",
              "type": "uint256"
            },
            {
              "internalType": "string",
              "name": "geostamp",
              "type": "string"
            }
          ],
          "internalType": "struct CoalSupplyChain.UserDashboardCoal[]",
          "name": "",
          "type": "tuple[]"
        }
      ],
      "stateMutability": "view",
      "type": "function",
      "constant": true
    }
  ],
  "bytecode": "0x608060405234801561001057600080fd5b50611255806100206000396000f3fe608060405234801561001057600080fd5b506004361061004c5760003560e01c80630d2a84d514610051578063b68972ea1461006d578063d67e10f11461009d578063e344a5aa146100bb575b600080fd5b61006b60048036038101906100669190610d74565b6100d7565b005b61008760048036038101906100829190610d4b565b610109565b6040516100949190611044565b60405180910390f35b6100a5610291565b6040516100b29190611066565b60405180910390f35b6100d560048036038101906100d09190610d74565b61075a565b005b600060026000868152602001908152602001600020805490501115610103576101028484848461075a565b5b50505050565b606060026000838152602001908152602001600020805480602002602001604051908101604052809291908181526020016000905b8282101561028657838290600052602060002090600502016040518060a001604052908160008201548152602001600182015481526020016002820160009054906101000a900473ffffffffffffffffffffffffffffffffffffffff1673ffffffffffffffffffffffffffffffffffffffff1673ffffffffffffffffffffffffffffffffffffffff16815260200160038201548152602001600482018054600181600116156101000203166002900480601f01602080910402602001604051908101604052809291908181526020018280546001816001161561010002031660029004801561026e5780601f106102435761010080835404028352916020019161026e565b820191906000526020600020905b81548152906001019060200180831161025157829003601f168201915b5050505050815250508152602001906001019061013e565b505050509050919050565b606080600160003373ffffffffffffffffffffffffffffffffffffffff1673ffffffffffffffffffffffffffffffffffffffff1681526020019081526020016000208054905067ffffffffffffffff811180156102ed57600080fd5b5060405190808252806020026020018201604052801561032757816020015b610314610bc3565b81526020019060019003908161030c5790505b50905060005b600160003373ffffffffffffffffffffffffffffffffffffffff1673ffffffffffffffffffffffffffffffffffffffff168152602001908152602001600020805490508110156107525761037f610bc3565b6040518060a001604052806000803373ffffffffffffffffffffffffffffffffffffffff1673ffffffffffffffffffffffffffffffffffffffff1681526020019081526020016000206000600160003373ffffffffffffffffffffffffffffffffffffffff1673ffffffffffffffffffffffffffffffffffffffff168152602001908152602001600020868154811061041457fe5b906000526020600020015481526020019081526020016000206000015481526020016000803373ffffffffffffffffffffffffffffffffffffffff1673ffffffffffffffffffffffffffffffffffffffff1681526020019081526020016000206000600160003373ffffffffffffffffffffffffffffffffffffffff1673ffffffffffffffffffffffffffffffffffffffff16815260200190815260200160002086815481106104c057fe5b90600052602060002001548152602001908152602001600020600101548152602001600160003373ffffffffffffffffffffffffffffffffffffffff1673ffffffffffffffffffffffffffffffffffffffff168152602001908152602001600020848154811061052c57fe5b906000526020600020015481526020016000803373ffffffffffffffffffffffffffffffffffffffff1673ffffffffffffffffffffffffffffffffffffffff1681526020019081526020016000206000600160003373ffffffffffffffffffffffffffffffffffffffff1673ffffffffffffffffffffffffffffffffffffffff16815260200190815260200160002086815481106105c657fe5b906000526020600020015481526020019081526020016000206002015481526020016000803373ffffffffffffffffffffffffffffffffffffffff1673ffffffffffffffffffffffffffffffffffffffff1681526020019081526020016000206000600160003373ffffffffffffffffffffffffffffffffffffffff1673ffffffffffffffffffffffffffffffffffffffff168152602001908152602001600020868154811061067257fe5b906000526020600020015481526020019081526020016000206003018054600181600116156101000203166002900480601f0160208091040260200160405190810160405280929190818152602001828054600181600116156101000203166002900480156107225780601f106106f757610100808354040283529160200191610722565b820191906000526020600020905b81548152906001019060200180831161070557829003601f168201915b505050505081525090508083838151811061073957fe5b602002602001018190525050808060010191505061032d565b508091505090565b610762610bf2565b6040518060a001604052808581526020018481526020013373ffffffffffffffffffffffffffffffffffffffff16815260200142815260200183815250905060026000868152602001908152602001600020819080600181540180825580915050600190039060005260206000209060050201600090919091909150600082015181600001556020820151816001015560408201518160020160006101000a81548173ffffffffffffffffffffffffffffffffffffffff021916908373ffffffffffffffffffffffffffffffffffffffff16021790555060608201518160030155608082015181600401908051906020019061085f929190610c37565b50505060006002600087815260200190815260200160002080549050905060005b81811015610bba5760006002600089815260200190815260200160002082815481106108a857fe5b906000526020600020906005020160020160009054906101000a900473ffffffffffffffffffffffffffffffffffffffff16905060008060008373ffffffffffffffffffffffffffffffffffffffff1673ffffffffffffffffffffffffffffffffffffffff16815260200190815260200160002060008a815260200190815260200160002060020154141561099e57600160008273ffffffffffffffffffffffffffffffffffffffff1673ffffffffffffffffffffffffffffffffffffffff1681526020019081526020016000208890806001815401808255809150506001900390600052602060002001600090919091909150555b6040518060800160405280600260008b815260200190815260200160002060018603815481106109ca57fe5b9060005260206000209060050201600001548152602001600260008b81526020019081526020016000206001860381548110610a0257fe5b9060005260206000209060050201600101548152602001600260008b81526020019081526020016000206001860381548110610a3a57fe5b9060005260206000209060050201600301548152602001600260008b81526020019081526020016000206001860381548110610a7257fe5b90600052602060002090600502016004018054600181600116156101000203166002900480601f016020809104026020016040519081016040528092919081815260200182805460018160011615610100020316600290048015610b175780601f10610aec57610100808354040283529160200191610b17565b820191906000526020600020905b815481529060010190602001808311610afa57829003601f168201915b50505050508152506000808373ffffffffffffffffffffffffffffffffffffffff1673ffffffffffffffffffffffffffffffffffffffff16815260200190815260200160002060008a81526020019081526020016000206000820151816000015560208201518160010155604082015181600201556060820151816003019080519060200190610ba8929190610c37565b50905050508080600101915050610880565b50505050505050565b6040518060a0016040528060008152602001600081526020016000815260200160008152602001606081525090565b6040518060a001604052806000815260200160008152602001600073ffffffffffffffffffffffffffffffffffffffff16815260200160008152602001606081525090565b828054600181600116156101000203166002900490600052602060002090601f016020900481019282610c6d5760008555610cb4565b82601f10610c8657805160ff1916838001178555610cb4565b82800160010185558215610cb4579182015b82811115610cb3578251825591602001919060010190610c98565b5b509050610cc19190610cc5565b5090565b5b80821115610cde576000816000905550600101610cc6565b5090565b600082601f830112610cf357600080fd5b8135610d06610d01826110b9565b611088565b91508082526020830160208301858383011115610d2257600080fd5b610d2d8382846111b3565b50505092915050565b600081359050610d4581611208565b92915050565b600060208284031215610d5d57600080fd5b6000610d6b84828501610d36565b91505092915050565b60008060008060808587031215610d8a57600080fd5b6000610d9887828801610d36565b9450506020610da987828801610d36565b9350506040610dba87828801610d36565b925050606085013567ffffffffffffffff811115610dd757600080fd5b610de387828801610ce2565b91505092959194509250565b6000610dfb8383610f49565b905092915050565b6000610e0f8383610fbf565b905092915050565b610e2081611177565b82525050565b6000610e3182611109565b610e3b8185611144565b935083602082028501610e4d856110e9565b8060005b85811015610e895784840389528151610e6a8582610def565b9450610e758361112a565b925060208a01995050600181019050610e51565b50829750879550505050505092915050565b6000610ea682611114565b610eb08185611155565b935083602082028501610ec2856110f9565b8060005b85811015610efe5784840389528151610edf8582610e03565b9450610eea83611137565b925060208a01995050600181019050610ec6565b50829750879550505050505092915050565b6000610f1b8261111f565b610f258185611166565b9350610f358185602086016111c2565b610f3e816111f7565b840191505092915050565b600060a083016000830151610f616000860182611035565b506020830151610f746020860182611035565b506040830151610f876040860182610e17565b506060830151610f9a6060860182611035565b5060808301518482036080860152610fb28282610f10565b9150508091505092915050565b600060a083016000830151610fd76000860182611035565b506020830151610fea6020860182611035565b506040830151610ffd6040860182611035565b5060608301516110106060860182611035565b50608083015184820360808601526110288282610f10565b9150508091505092915050565b61103e816111a9565b82525050565b6000602082019050818103600083015261105e8184610e26565b905092915050565b600060208201905081810360008301526110808184610e9b565b905092915050565b6000604051905081810181811067ffffffffffffffff821117156110af576110ae6111f5565b5b8060405250919050565b600067ffffffffffffffff8211156110d4576110d36111f5565b5b601f19601f8301169050602081019050919050565b6000819050602082019050919050565b6000819050602082019050919050565b600081519050919050565b600081519050919050565b600081519050919050565b6000602082019050919050565b6000602082019050919050565b600082825260208201905092915050565b600082825260208201905092915050565b600082825260208201905092915050565b600061118282611189565b9050919050565b600073ffffffffffffffffffffffffffffffffffffffff82169050919050565b6000819050919050565b82818337600083830152505050565b60005b838110156111e05780820151818401526020810190506111c5565b838111156111ef576000848401525b50505050565bfe5b6000601f19601f8301169050919050565b611211816111a9565b811461121c57600080fd5b5056fea264697066735822122040ccffa84a45accf337925431bf57bc6135c25d77a3fddc026c8382e1928178b64736f6c63430007050033",
  "immutableReferences": {},
  "source": "pragma solidity ^0.7.5;\npragma abicoder v2;\n\ncontract CoalSupplyChain {\n    struct UserCoalState{\n        uint256 quality;\n        uint256 quantity;\n        uint256 timestamp;\n        string geostamp;\n    }\n\n    struct CoalState{\n        uint256 quality;\n        uint256 quantity;\n        address user;\n        uint256 timestamp;\n        string geostamp;\n    }\n    \n    struct UserDashboardCoal{\n        uint256 quality;\n        uint256 quantity;\n        uint256 coalId;\n        uint256 timestamp;\n        string geostamp;\n    }\n    \n    mapping(address => mapping(uint256 => UserCoalState)) usersCoal;\n    mapping(address => uint256[]) usersCoalIds;\n    mapping(uint256 => CoalState[]) shipments;\n    \n    function newShipment(uint256 coalId, uint256 _quality, uint256 _quantity, string memory _geostamp) public {\n        CoalState memory coalState = CoalState({\n            quality: _quality, \n            quantity: _quantity, \n            user: msg.sender,\n            timestamp: block.timestamp, \n            geostamp: _geostamp\n        });\n        shipments[coalId].push(coalState);\n        \n        uint256 shipmentsListSize = shipments[coalId].length;\n        for(uint i=0;i<shipmentsListSize;i++){\n            address _user = shipments[coalId][i].user;\n            if(usersCoal[_user][coalId].timestamp == 0)\n                usersCoalIds[_user].push(coalId);\n            usersCoal[_user][coalId] = UserCoalState({\n                quantity: shipments[coalId][shipmentsListSize-1].quantity,\n                quality: shipments[coalId][shipmentsListSize-1].quality,\n                timestamp: shipments[coalId][shipmentsListSize-1].timestamp,\n                geostamp: shipments[coalId][shipmentsListSize-1].geostamp\n            });\n        }\n    }\n    \n    function addState(uint256 coalId, uint256 _quality, uint256 _quantity, string memory _geostamp) external {\n        if(shipments[coalId].length > 0)\n            newShipment(coalId, _quality, _quantity, _geostamp);\n    }\n    \n    function viewShipment(uint256 coalId) external view returns (CoalState[] memory) {\n        return shipments[coalId];\n    }\n    \n    function viewDashboard() external view returns (UserDashboardCoal[] memory){\n        UserDashboardCoal[] memory userDashboardCoal = new UserDashboardCoal[](usersCoalIds[msg.sender].length);\n        for(uint256 i=0;i<usersCoalIds[msg.sender].length;i++){\n            UserDashboardCoal memory coal = UserDashboardCoal({\n                quality: usersCoal[msg.sender][usersCoalIds[msg.sender][i]].quality,\n                quantity: usersCoal[msg.sender][usersCoalIds[msg.sender][i]].quantity,\n                coalId: usersCoalIds[msg.sender][i],\n                timestamp: usersCoal[msg.sender][usersCoalIds[msg.sender][i]].timestamp,\n                geostamp: usersCoal[msg.sender][usersCoalIds[msg.sender][i]].geostamp\n            });\n            userDashboardCoal[i] = coal;\n        }\n        return userDashboardCoal;\n    }\n}",
  "sourcePath": "/home/gaurav/Desktop/try2/contracts/CoalSupplyChain.sol",
  "compiler": {
    "name": "solc",
    "version": "0.7.5+commit.eb77ed08.Emscripten.clang"
  },
  "schemaVersion": "3.3.2",
  "updatedAt": "2020-11-26T17:11:54.907Z",
  "networkType": "ethereum",
  "devdoc": {
    "kind": "dev",
    "methods": {},
    "version": 1
  },
  "userdoc": {
    "kind": "user",
    "methods": {},
    "version": 1
  }
}